:1000000073C00000E9C00000E7C00000E5C00000C8
:10001000E3C00000E1C00000DFC00000DDC0000060
:10002000DBC0000046C2000077C20000A8C200008A
:10003000D3C00000EBC700000C943908CDC000000D
:10004000CBC000000C946C080C949F080C94D20850
:100050000C94050975C70000A6C70000B1C50000D3
:10006000BBC00000B9C00000B7C00000B5C00000B0
:10007000B3C00000B1C00000AFC00000ADC00000C0
:100080000C9438090C946B090C949E090C94D109BA
:10009000A3C00000A1C000009FC000009DC00000E0
:1000A0009BC0000099C000000C94040A0C94370A0D
:1000B0000C946A0A0C949D0A8FC000000C94D00A1C
:1000C0000C94030B0C94360B0C94690B85C0000048
:1000D00083C0000081C000007FC000007DC0000020
:1000E0007BC000003102E10614BE0FB6F894A8955B
:1000F00080916000886180936000109260000FBE64
:1001000014BE0FB6F894A895809160008861809322
:100110006000109260000FBE14BE0FB6F894A89550
:1001200080916000886180936000109260000FBE33
:1001300014BE0FB6F894A8958091600088618093F2
:100140006000109260000FBE14BE0FB6F894A89520
:1001500080916000886180936000109260000FBE03
:1001600014BE0FB6F894A8958091600088618093C2
:100170006000109260000FBE11241FBECFEFD1E2CD
:10018000DEBFCDBF00E00CBF13E0A0E0B2E0E8E4CA
:10019000FDE100E00BBF02C007900D92A030B10757
:1001A000D9F72CE1A0E0B3E001C01D92AF3AB2074D
:1001B000E1F710E0C4E7D0E000E006C021970109B4
:1001C000802FFE010E949A0EC237D10780E00807F7
:1001D000A9F710D10C94A20E13CFEF92FF920F93B8
:1001E0001F93019711F56F3F7F4FF9F42FE845E01A
:1001F00062E08EE193E0C1D320E04FEF60E08AE15E
:1002000093E035D1E12CF12C00E010E020E030E06B
:100210004FED51E061E088E093E00E949C0B20E00C
:1002200040E069E084E093E022D11F910F91FF90BC
:10023000EF900895CF93DF93EC0180911D038F3FE2
:1002400039F4E0911A03F0911B03828112820AC0F3
:10025000AAE1B3E0ED91FC911197928112968C91F5
:10026000892B828382E08B8389E08A83198247E02D
:1002700060E08EE193E09DD220E341E062E070E037
:100280008EE193E075D41882DF91CF910895CF93DA
:10029000DF93FC012281233180F4EC0147E060E030
:1002A0008EE193E086D220E341E063E070E08EE1EE
:1002B00093E05ED4198283E08B83DF91CF91089520
:1002C000CF93DF93FC0182818D31C8F490E0DC0193
:1002D000AA0FBB1F8A0F9B1FDC01AA5EBD4F8C912A
:1002E000AAE1B3E0CD91DC91119712969C911297FF
:1002F00013962C912F3F09F0809589238A83828160
:1003000090E0DC01AA0FBB1FA80FB91FAA5EBD4F6A
:1003100011963C912181321711F02F5F21832181A9
:1003200032130CC0DC01AA0FBB1F8A0F9B1FDC011C
:10033000AA5EBD4F12968C91828311828281823196
:1003400059F48081811102C093E09283882311F0D7
:1003500092E092838F5F80838281863029F483814B
:10036000833021F080E003C080E001C081E0882379
:1003700011F084E1828382818C31F0F080911D0341
:100380008F3F51F4A0911A03B0911B0312968C91E8
:10039000129712961C920BC0CAE1D3E0A881B981D2
:1003A00012969C9112978A81892B12968C931082B7
:1003B00088E093E00E94C50DDF91CF91089580E021
:1003C00093E07ECF089540E060E08EE193E0F1D1CC
:1003D00040E069E072E08EE193E033D340E061E019
:1003E0008EE193E0E6D140E061E172E08EE193E0DE
:1003F00028C3089580E093E0E6DF7894EE24EA9441
:1004000000E010E020E030E040E050E068EE73E013
:1004100088E093E00E94790C80E093E00BDF9FB7C7
:10042000F89481E08823B1F0E4E0F3E0C281C09564
:1004300083818F3F31F4E0910403F09105038081C3
:1004400006C0E0910403F091050380818095C823E4
:1004500080E0E8CF9FBFC13011F780E093E017DF65
:10046000DECF6FEF7FEF81E090E0B7CE08950F937E
:100470001F93CF93DF938C01862FC42FD22F0E941E
:100480002A0ED80111969C938E93009769F01396CB
:10049000DC9313971296CC931297FC01C183ED91D4
:1004A000FC91CD2BC095C283DF91CF911F910F910D
:1004B00008951F920F920FB60F9211240BB60F9250
:1004C0002F933F934F935F936F937F938F939F935C
:1004D000AF93BF93EF93FF938091280390912903EB
:1004E000009739F0DC01ED91FC910190F081E02D55
:1004F0001995FF91EF91BF91AF919F918F917F914E
:100500006F915F914F913F912F910F900BBE0F9084
:100510000FBE0F901F9018951F920F920FB60F925B
:1005200011240BB60F922F933F934F935F936F93CA
:100530007F938F939F93AF93BF93EF93FF9380919C
:100540002C0390912D03009739F0DC01ED91FC9183
:100550000190F081E02D1995FF91EF91BF91AF913E
:100560009F918F917F916F915F914F913F912F91CB
:100570000F900BBE0F900FBE0F901F9018951F92FB
:100580000F920FB60F9211240BB60F922F933F9339
:100590004F935F936F937F938F939F93AF93BF938B
:1005A000EF93FF9380912A0390912B03009739F0EA
:1005B000DC01ED91FC910190F081E02D1995FF9106
:1005C000EF91BF91AF919F918F917F916F915F91CB
:1005D0004F913F912F910F900BBE0F900FBE0F9038
:1005E0001F901895CF93DF93FC016FB7F894A28109
:1005F000B3811C92A281B381119780EF8C93A28169
:10060000B3818C9180628C9381E090E0A281B38170
:100610004C919C01018402C0220F331F0A94E2F71F
:1006200024272C9325E02A95F1F70000A281B381BD
:10063000ED01229728812295207F3C91AC01018415
:1006400002C0440F551F0A94E2F743274C933AE047
:100650003A95F1F700C0A281B3813C91AC010184CD
:1006600002C0440F551F0A94E2F743274C9335E02C
:100670003A95F1F70000A281B381ED01229738810C
:100680003C91AC01018402C0440F551F0A94E2F76B
:1006900043274C9322230CF4B9CFA281B3818C91D0
:1006A0008F7D8C930280F381E02D31978FEF8083D3
:1006B0006FBFDF91CF910895FC014FB7F894A281ED
:1006C000B3815C9121E030E0C901018402C0880F50
:1006D000991F0A94E2F785278C9385E08A95F1F7B4
:1006E0000000A281B3818C91018402C0220F331FCC
:1006F0000A94E2F728272C934FBF0895EF92FF92B8
:100700000F931F93CF93DF93EC01062F8C818930D9
:1007100011F0CE0167DF1FB7F894E02EF12CF594AD
:10072000E794F594E794F594E794F594E794EA81D7
:10073000FB81E082CE01C0DF0F70EA81FB81008384
:10074000CE01BADFEA81FB8110828C81893031F5DC
:1007500087EC90E00197F1F700C000001FC01985F9
:10076000143011F084E001C087E08987FFB6F89467
:10077000EA81FB81E082CE019FDFEA81FB81008379
:10078000CE019ADFEA81FB811082198787EC90E025
:100790000197F1F700C00000FFBE04C01FBF8C81AD
:1007A0008930E9F2DF91CF911F910F91FF90EF9087
:1007B0000895CF93DF93FC01A581B6818C916817D2
:1007C000F0F411968C9111974817D8F440876783FD
:1007D000ED01C60FD11D8A81480F8481893039F41B
:1007E0008C918695681718F087E0818702C084E0B5
:1007F0008187CF01642F606881DF81E003C080E0E2
:1008000001C080E0DF91CF910895FC01908581E0E7
:10081000890F8087A581B68111962C911197821737
:1008200088F08181882349F0108687818F5F8783D4
:100830009C91891718F0178201C0908740856781C5
:10084000CF01B7CF08951F93CF93DF93EC01162FFD
:100850002FEF81EE94E0215080409040E1F700C0FE
:100860000000EA81FB8183E08083CE0125DF8FE1F8
:100870009EE40197F1F700C00000CE011DDF8FE17B
:100880009EE40197F1F700C00000CE0115DF8FE173
:100890009EE40197F1F700C00000EA81FB8182E04D
:1008A0008083CE0109DF8FE19EE40197F1F700C05C
:1008B0000000612FCE0122DFED81FE818081813039
:1008C00021F460E2CE011ADF03C068E2CE0116DF38
:1008D00061E0CE0113DF8C81893031F48FE19EE439
:1008E0000197F1F700C0000066E0CE0107DF8C81C0
:1008F000893009F03EC087E08987EA81FB8183E087
:100900008083CE01D9DE8FE19EE40197F1F700C02C
:100910000000CE01D1DE8FE19EE40197F1F700C027
:100920000000CE01C9DE8FE19EE40197F1F700C01F
:100930000000EA81FB8182E08083CE01BDDE8FE191
:100940009EE40197F1F700C00000612FCE01D6DED2
:1009500068E2CE01D3DE61E0CE01D0DE8FE19EE41D
:100960000197F1F700C0000066E0CE01C7DE84E029
:100970008987DF91CF911F9108950F931F93CF9394
:10098000DF93EC01862F042F122F0E942A0E9C0168
:100990002E5F3F4F3B832A8324E029870C83402F1F
:1009A00050E09A01220F331F420F531F440F551F6F
:1009B00046595D4F5E834D8318861F82212F221F6B
:1009C0002227221F29832FEFFC012183612F6F77BC
:1009D0006883CE0138DFDF91CF911F910F91089589
:1009E0000F931F93CF93DF93EC01162F8C818930E7
:1009F00011F0CE01F7DD0FB7F894812F82958F703B
:100A00008064EA81FB818083CE0156DE1F70106412
:100A1000EA81FB811083CE014FDEEA81FB811082E7
:100A20008C81893031F487EC90E00197F1F700C0B8
:100A300000000FBFCE01E9DEDF91CF911F910F9132
:100A40000895EF92FF920F931F93CF93DF937C0152
:100A5000442311F050E002C04FEF5FEFEB018B0138
:100A6000040F151F0C171D0739F06881662321F04C
:100A70002196C701B5DFF6CFDF91CF911F910F917E
:100A8000FF90EF9008958F929F92AF92BF92CF9276
:100A9000DF92EF92FF920F931F93CF93DF936C013E
:100AA000FB01892B31F40F2EFEE2CF2EF3E0DF2E77
:100AB000F02DFF233CF48DE2D6018C93F195E19566
:100AC000F10937C0D6012C9334C0CF01B8010E9480
:100AD000730E7C018E179F0791F4353021F480E36B
:100AE000F60185831CC08881281302C029830DC0AC
:100AF0008D3219F42883898208C0998206C0CF01FB
:100B0000B8010E94730E605D6983C801B5010E943F
:100B1000730E8B013F5F2196F7013630B1F6D60197
:100B200016961C9286E090E0841B91098C0D9D1D09
:100B300012C0E60131E000E117E20F2EF0E39F2E34
:100B4000F02D0F2EFDE28F2EF02D0F2EFAE0AF2E9E
:100B5000B12CF02DBACFDF91CF911F910F91FF9063
:100B6000EF90DF90CF90BF90AF909F908F900895BF
:100B7000CF93DF93EC0180E090E085DF40E0BC01A3
:100B8000CE015FDFDF91CF910895909136039923D5
:100B9000A9F020913503E22FF0E0E050FE4F808174
:100BA0003FEF30839150909336032F5F283018F435
:100BB0002093350308951092350308958FEF08951B
:100BC000FF93EF93DF93CF93BF93AF939F938F9355
:100BD0007F936F935F934F933F932F931F930F9345
:100BE000FF92EF92DF92CF92BF92AF929F928F923D
:100BF0007F926F925F924F923F922F921F920F922D
:100C0000C09108022C2F30E08FB74BE253E0249FB5
:100C1000F001259FF00D349FF00D1124E85BFC4F8F
:100C200080878DB79EB79287818784819581A681C1
:100C3000B7818F519F4FAF4FBF4F84839583A6835A
:100C4000B783818181110DC08BE293E0289FF00171
:100C5000299FF00D389FF00D1124E85BFC4F81E0D7
:100C6000818393DF8F3F19F08093080241C08C2F5E
:100C70004BE253E08F5F883008F081E0282F30E0AE
:100C8000249FF001259FF00D349FF00D1124E85BA7
:100C9000FC4F9181913041F5249FF001259FF00D8B
:100CA000349FF00D1124E85BFC4F9381992361F090
:100CB000249FF001259FF00D349FF00D1124E85B77
:100CC000FC4F91509383D6CF4BE253E0249FF00129
:100CD000259FF00D349FF00D1124E85BFC4F9281AD
:100CE00093838093080204C08C13C4CF109208022F
:100CF000209108028BE293E0289FF001299FF00DDC
:100D00001124E85BFC4F11829FB7F894409139039E
:100D100050913A032091DE023091DF0242175307CF
:100D200051F4E7E3F3E0A481B5818C9185608C9365
:100D3000808986BD0AC0E7E3F3E0A481B5818C9188
:100D400087608C9380898093B2009FBF20910802B6
:100D50008BE293E0289FF001299FF00D1124E85BBE
:100D6000FC4F20852FBF20910802289FF001299F6A
:100D7000F00D1124E85BFC4F818592859EBF8DBFED
:100D80000F901F902F903F904F905F906F907F90AB
:100D90008F909F90AF90BF90CF90DF90EF90FF909B
:100DA0000F911F912F913F914F915F916F917F9183
:100DB0008F919F91AF91BF91CF91DF91EF91FF9173
:100DC000189560E087E393E0BCC60895CF93DF9366
:100DD000EC01E885F985309709F019958A859B859E
:100DE000892B39F4E881F9810190F081E02DCE0161
:100DF0001995DF91CF910895CF93DF93EC01EA85A8
:100E0000FB85309709F019958E859F85892B39F4DC
:100E1000E881F9810190F081E02DCE011995DF91F3
:100E2000CF9108950895CF93DF93EC01EE85FF8570
:100E3000309709F01995E881F9810190F081E02D52
:100E4000CE011995DF91CF910895DC012FB7F89469
:100E500012964D915C9113978091DE029091DF0282
:100E60004817590759F41496ED91FC911597808114
:100E70008560808350968C9186BD0BC01496ED9151
:100E8000FC91159790819760908350968C918093F8
:100E9000B2002FBF0895CF93DF93EC01E885F98569
:100EA000309709F019958A859B85892B39F4E8815B
:100EB000F9810190F081E02DCE011995DF91CF915C
:100EC0000895CF93DF93EC01EA85FB85309709F015
:100ED00019958C859D85892B39F4E881F9810190DC
:100EE000F081E02DCE011995DF91CF910895CF9338
:100EF000DF93EC01EC85FD85309709F019958E851F
:100F00009F85892B39F4E881F9810190F081E02DEA
:100F1000CE011995DF91CF910895CF93DF93EC0126
:100F2000EE85FF85309709F01995E881F9810190E8
:100F3000F081E02DCE011995DF91CF910895FFCF7B
:100F40001F920F920FB60F9211240BB60F922F9390
:100F50003F934F935F936F937F938F939F93AF9341
:100F6000BF93EF93FF938091A01C9091A11C0097D9
:100F700039F0DC01ED91FC910280F381E02D1995AF
:100F8000FF91EF91BF91AF919F918F917F916F9161
:100F90005F914F913F912F910F900BBE0F900FBE1D
:100FA0000F901F9018951F920F920FB60F92112459
:100FB0000BB60F922F933F934F935F936F937F9353
:100FC0008F939F93AF93BF93EF93FF938091A01C58
:100FD0009091A11C009739F0DC01ED91FC91048007
:100FE000F581E02D1995FF91EF91BF91AF919F9100
:100FF0008F917F916F915F914F913F912F910F90C2
:101000000BBE0F900FBE0F901F9018951F920F925E
:101010000FB60F9211240BB60F922F933F934F935D
:101020005F936F937F938F939F93AF93BF93EF9350
:10103000FF938091A41C9091A51C009739F0DC01CE
:10104000ED91FC910280F381E02D1995FF91EF91D4
:10105000BF91AF919F918F917F916F915F914F91D0
:101060003F912F910F900BBE0F900FBE0F901F90CE
:1010700018951F920F920FB60F9211240BB60F9274
:101080002F933F934F935F936F937F938F939F9390
:10109000AF93BF93EF93FF938091A41C9091A51CF5
:1010A000009739F0DC01ED91FC910480F581E02D91
:1010B0001995FF91EF91BF91AF919F918F917F9182
:1010C0006F915F914F913F912F910F900BBE0F90B9
:1010D0000FBE0F901F9018951F920F920FB60F9290
:1010E00011240BB60F922F933F934F935F936F93FF
:1010F0007F938F939F93AF93BF93EF93FF938091D1
:10110000A21C9091A31C009739F0DC01ED91FC9199
:101110000280F381E02D1995FF91EF91BF91AF917E
:101120009F918F917F916F915F914F913F912F91FF
:101130000F900BBE0F900FBE0F901F9018951F922F
:101140000F920FB60F9211240BB60F922F933F936D
:101150004F935F936F937F938F939F93AF93BF93BF
:10116000EF93FF938091A21C9091A31C009739F0FC
:10117000DC01ED91FC910480F581E02D1995FF9142
:10118000EF91BF91AF919F918F917F916F915F91FF
:101190004F913F912F910F900BBE0F900FBE0F906C
:1011A0001F9018951F920F920FB60F9211240BB635
:1011B0000F922F933F934F935F936F937F938F93F0
:1011C0009F93AF93BF93EF93FF938091A21C909155
:1011D000A31C009739F0DC01ED91FC910680F781AA
:1011E000E02D1995FF91EF91BF91AF919F918F9154
:1011F0007F916F915F914F913F912F910F900BBE17
:101200000F900FBE0F901F9018951F920F920FB660
:101210000F9211240BB60F922F933F934F935F932E
:101220006F937F938F939F93AF93BF93EF93FF93AE
:101230008091A21C9091A31C009739F0DC01ED91E4
:10124000FC910084F185E02D1995FF91EF91BF91FC
:10125000AF919F918F917F916F915F914F913F914E
:101260002F910F900BBE0F900FBE0F901F901895EF
:101270001F920F920FB60F9211240BB60F922F935D
:101280003F934F935F936F937F938F939F93AF930E
:10129000BF93EF93FF938091A61C9091A71C00979A
:1012A00039F0DC01ED91FC910280F381E02D19957C
:1012B000FF91EF91BF91AF919F918F917F916F912E
:1012C0005F914F913F912F910F900BBE0F900FBEEA
:1012D0000F901F9018951F920F920FB60F92112426
:1012E0000BB60F922F933F934F935F936F937F9320
:1012F0008F939F93AF93BF93EF93FF938091A61C1F
:101300009091A71C009739F0DC01ED91FC910480CD
:10131000F581E02D1995FF91EF91BF91AF919F91CC
:101320008F917F916F915F914F913F912F910F908E
:101330000BBE0F900FBE0F901F9018951F920F922B
:101340000FB60F9211240BB60F922F933F934F932A
:101350005F936F937F938F939F93AF93BF93EF931D
:10136000FF938091A61C9091A71C009739F0DC0197
:10137000ED91FC910680F781E02D1995FF91EF9199
:10138000BF91AF919F918F917F916F915F914F919D
:101390003F912F910F900BBE0F900FBE0F901F909B
:1013A00018951F920F920FB60F9211240BB60F9241
:1013B0002F933F934F935F936F937F938F939F935D
:1013C000AF93BF93EF93FF938091A61C9091A71CBE
:1013D000009739F0DC01ED91FC910084F185E02D5E
:1013E0001995FF91EF91BF91AF919F918F917F914F
:1013F0006F915F914F913F912F910F900BBE0F9086
:101400000FBE0F901F9018951F920F920FB60F925C
:1014100011240BB60F922F933F934F935F936F93CB
:101420007F938F939F93AF93BF93EF93FF9380919D
:10143000A81C9091A91C009739F0DC01ED91FC915A
:101440000280F381E02D1995FF91EF91BF91AF914B
:101450009F918F917F916F915F914F913F912F91CC
:101460000F900BBE0F900FBE0F901F9018951F92FC
:101470000F920FB60F9211240BB60F922F933F933A
:101480004F935F936F937F938F939F93AF93BF938C
:10149000EF93FF938091A81C9091A91C009739F0BD
:1014A000DC01ED91FC910480F581E02D1995FF910F
:1014B000EF91BF91AF919F918F917F916F915F91CC
:1014C0004F913F912F910F900BBE0F900FBE0F9039
:1014D0001F9018951F920F920FB60F9211240BB602
:1014E0000F922F933F934F935F936F937F938F93BD
:1014F0009F93AF93BF93EF93FF938091A81C90911C
:10150000A91C009739F0DC01ED91FC910680F78170
:10151000E02D1995FF91EF91BF91AF919F918F9120
:101520007F916F915F914F913F912F910F900BBEE3
:101530000F900FBE0F901F9018951F920F920FB62D
:101540000F9211240BB60F922F933F934F935F93FB
:101550006F937F938F939F93AF93BF93EF93FF937B
:101560008091A81C9091A91C009739F0DC01ED91A5
:10157000FC910084F185E02D1995FF91EF91BF91C9
:10158000AF919F918F917F916F915F914F913F911B
:101590002F910F900BBE0F900FBE0F901F901895BC
:1015A0001F920F920FB60F9211240BB60F922F932A
:1015B0003F934F935F936F937F938F939F93AF93DB
:1015C000BF93EF93FF938091AA1C9091AB1C00975F
:1015D00039F0DC01ED91FC910280F381E02D199549
:1015E000FF91EF91BF91AF919F918F917F916F91FB
:1015F0005F914F913F912F910F900BBE0F900FBEB7
:101600000F901F9018951F920F920FB60F921124F2
:101610000BB60F922F933F934F935F936F937F93EC
:101620008F939F93AF93BF93EF93FF938091AA1CE7
:101630009091AB1C009739F0DC01ED91FC91048096
:10164000F581E02D1995FF91EF91BF91AF919F9199
:101650008F917F916F915F914F913F912F910F905B
:101660000BBE0F900FBE0F901F9018951F920F92F8
:101670000FB60F9211240BB60F922F933F934F93F7
:101680005F936F937F938F939F93AF93BF93EF93EA
:10169000FF938091AA1C9091AB1C009739F0DC015C
:1016A000ED91FC910680F781E02D1995FF91EF9166
:1016B000BF91AF919F918F917F916F915F914F916A
:1016C0003F912F910F900BBE0F900FBE0F901F9068
:1016D00018951F920F920FB60F9211240BB60F920E
:1016E0002F933F934F935F936F937F938F939F932A
:1016F000AF93BF93EF93FF938091AA1C9091AB1C83
:10170000009739F0DC01ED91FC910084F185E02D2A
:101710001995FF91EF91BF91AF919F918F917F911B
:101720006F915F914F913F912F910F900BBE0F9052
:101730000FBE0F901F9018959F92AF92BF92CF92BD
:10174000DF92EF92FF920F931F93CF93DF93EC0101
:10175000962E5A0169018AEA92E099838883862F3E
:101760009DD29B838A83E92DF0E0EE0FFF1FE252AA
:10177000FD4F8081918101969D838C8384ED92E061
:101780009983888381E0981226C0D093A31CC093CC
:10179000A21CA114B10429F0EFE6F0E08081826080
:1017A0008083C114D10429F0EFE6F0E080818460E9
:1017B00080830115110529F0EFE6F0E08081886053
:1017C0008083E114F10409F47EC0EFE6F0E080814B
:1017D0008160808378C083E0981226C0D093A71CD4
:1017E000C093A61CA114B10429F0E1E7F0E08081C8
:1017F00082608083C114D10429F0E1E7F0E08081A8
:10180000846080830115110529F0E1E7F0E0808113
:1018100088608083E114F10409F455C0E1E7F0E049
:101820008081816080834FC084E0981225C0D0936E
:10183000A91CC093A81CA114B10429F0E2E7F0E0B0
:10184000808182608083C114D10429F0E2E7F0E056
:101850008081846080830115110529F0E2E7F0E0C2
:10186000808188608083E114F10469F1E2E7F0E0AF
:1018700080818160808327C085E098122EC0D0933C
:10188000AB1CC093AA1CA114B10429F0E3E7F0E05B
:10189000808182608083C114D10429F0E3E7F0E005
:1018A0008081846080830115110529F0E3E7F0E071
:1018B000808188608083E114F10429F0E3E7F0E09F
:1018C000808181608083B986A886DB86CA861D8771
:1018D0000C87FF86EE861E821F82DF91CF911F91BB
:1018E0000F91FF90EF90DF90CF90BF90AF909F90BF
:1018F0000895EF92FF920F931F93CF93DF93FC0114
:10190000FFB6F894A481B5818C91887F8C93A481D3
:10191000B5818C9185608C93A62FB72FA23181E180
:10192000B80710F0A1E1B1E18FE08A9FE0018B9F41
:10193000D00D1124642F752F623181E1780710F0EA
:1019400061E171E18FE0869FD001879FB00D112486
:10195000422F532F423181E1580710F041E151E10C
:101960008FE0849FB001859F700D1124202F312FAF
:10197000223181E1380710F021E131E18FE0829FCF
:10198000A001839F500D1124518B408B8281938144
:101990002091E0023091E1028217930789F4D093FD
:1019A0008900C0938800B0938B00A0938A00709345
:1019B0008D0060938C00509385004093840040C05C
:1019C0002091E4023091E5028217930789F4D093C5
:1019D0009900C0939800B0939B00A0939A007093D5
:1019E0009D0060939C00509395004093940028C004
:1019F0002091E6023091E7028217930789F4D09391
:101A0000A900C093A800B093AB00A093AA00709364
:101A1000AD006093AC005093A5004093A40010C0AB
:101A2000D0932901C0932801B0932B01A0932A01E0
:101A300070932D0160932C01509325014093240154
:101A4000E68281E08783FFBEDF91CF911F910F91E6
:101A5000FF90EF900895BF92CF92DF92EF92FF92A6
:101A60000F931F93CF93DF93EC01B62E6A01790198
:101A70008AEA92E099838883862F10D19B838A8398
:101A8000EB2DF0E0EE0FFF1FE252FD4F80819181C0
:101A900001969D838C8388EB92E099838883B110B3
:101AA0001DC0D093A11CC093A01CC114D10429F067
:101AB000EEE6F0E0808182608083E114F10429F099
:101AC000EEE6F0E08081846080830115110529F144
:101AD000EEE6F0E08081816080831FC082E0B81272
:101AE00026C0D093A51CC093A41CC114D10429F016
:101AF000E0E7F0E0808182608083E114F10429F066
:101B0000E0E7F0E08081846080830115110529F011
:101B1000E0E7F0E0808181608083D986C886FB861B
:101B2000EA861D861C861F870E871E821F82DF9114
:101B3000CF911F910F91FF90EF90DF90CF90BF90CA
:101B40000895EF92FF920F931F93CF937C01C62FBE
:101B500000E010E020E030E040E050E07CDF86EC88
:101B600092E0F70191838083C11104C081E08093EA
:101B70006E0005C0C23019F481E080937000CF91EF
:101B80001F910F91FF90EF900895FC019FB7F8947B
:101B9000A481B5818C91887F8C93168217829FBF18
:101BA0000895FC0186818230B8F18F3F11F0815099
:101BB0008683828193812091E0023091E102821735
:101BC000930739F4808991899093850080938400EC
:101BD00008952091E4023091E5028217930739F4C9
:101BE0008089918990939500809394000895209125
:101BF000E6023091E7028217930739F480899189D0
:101C00009093A5008093A400089580899189909372
:101C10002501809324010895CF01B7CF0895FC01D9
:101C200086818230A0F08F3F11F08150868322811F
:101C300033818091DE029091DF022817390719F471
:101C4000808986BD089580898093B2000895CF0170
:101C50009CCF0895282F30E041E050E0BA0102C047
:101C6000660F771F8A95E2F7CB014091AD1C50912A
:101C7000AE1C64237523672B71F4842B952B9093F2
:101C8000AE1C8093AD1C220F331FF901E651FD4FAE
:101C900080819181089580E090E008956091AC1C6E
:101CA000282F30E0462F50E0082E02C0559547956A
:101CB0000A94E2F740FD14C041E050E0FA0102C08E
:101CC000EE0FFF1F8A95E2F7CF01862B8093AC1CA5
:101CD000220F331FF901E252FD4F80819181089557
:101CE00080E090E0089597FB072E16F4009406D04C
:101CF00077FD08D00BD007FC05D03EF49095819578
:101D00009F4F0895709561957F4F0895AA1BBB1B47
:101D100051E107C0AA1FBB1FA617B70710F0A61BEB
:101D2000B70B881F991F5A95A9F780959095BC010C
:101D3000CD010895EE0FFF1F881F8BBF0790F6910E
:081D4000E02D1994F894FFCF87
:101D4800FFFFFFFFFFFFFFFFFF53746174653A2039
:101D5800002D2D3E2000210501220102320103340D
:101D680001040C050514010616010726010052019D
:101D78000940010A52010B40010C52010D40010EAD
:101D880052010F400110520111640512A40513926B
:101D98000114800115920116800117920118800123
:101DA8001992011A80011B92011C01140000000005
:101DB8000118000000000128000000000210004087
:101DC8000000021400400000021800400000022831
:101DD800004000000410004010500414004010504F
:101DE800042800400040000000009F079F079F074D
:101DF8009F079F07000000000F0EE606FC0612076B
:101E08001307000000002507E606FC061207130763
:101E180000000000D10D4B07610777078D074400CC
:101E28008000B0009000A0002001200023002600C0
:101E380029002C002F0032000001030106010901CE
:00000001FF
